:020000040800F2
:10000000E0320020010100086B080008E10500084B
:1000100067080008D90200088918000800000000DD
:1000200000000000000000000000000015130008A0
:10003000C904000800000000190C00088114000821
:100040001B0100081B0100081B0100081B01000820
:100050001B0100081B0100081B0100081B01000810
:100060001B0100081B0100081B0100081B01000800
:100070001B0100081B0100081B0100081B010008F0
:100080001B0100081B010008B90200081B01000841
:100090001B0100081B0100081B0100081B010008D0
:1000A0001B0100081B0100081B0100081B010008C0
:1000B0001B0100081B0100081B0100081B010008B0
:1000C0001B0100081B0100081B0100081B010008A0
:1000D0001B010008D1150008091600087516000854
:1000E0001B0100081B0100081B010008DFF80CD0F1
:1000F00000F086F8004800476D1F0008E03200203D
:100100000648804706480047FEE7FEE7FEE7FEE7B1
:10011000FEE7FEE7FEE7FEE7FEE7FEE7AD140008B8
:10012000ED0000080649074A0868504343F23902C7
:10013000104408604008704701490860704700009B
:10014000540100206D4EC641D2B201E000F8012BEF
:10015000491EFBD270470022F6E710B513460A4647
:1001600004461946FFF7F0FF204610BD30B505469E
:100170002A460B4612F8010B13F8014B08B1A042B6
:10018000F8D01CB1002802D06D1CF1E7284630BD24
:10019000421C10F8011B0029FBD1801A70472DE981
:1001A000F05F0546002092469B46884606468146FB
:1001B00040241BE0284641464746224600F041F8CD
:1001C00053465A46C01A914110D31146184622464A
:1001D00000F028F82D1A67EB01084F46224601204F
:1001E000002100F01FF817EB00094E41201EA4F17A
:1001F0000104DFDC484631462A464346BDE8F09F0D
:10020000064C074D06E0E06840F0010394E8070063
:1002100098471034AC42F6D3FFF76CFFA41F0008D8
:10022000C41F0008202A04DB203A00FA02F1002053
:1002300070479140C2F1200320FA03F31943904024
:100240007047202A04DB203A21FA02F0002170478F
:1002500021FA02F3D040C2F120029140084319462E
:10026000704770B58C1810F8015B15F0070301D1C9
:1002700010F8013B2A1106D110F8012B03E010F809
:10028000016B01F8016B5B1EF9D12B0705D400232C
:10029000521E0DD401F8013BFAE710F8013BCB1ACE
:1002A000921C03E013F8015B01F8015B521EF9D5C3
:1002B000A142D8D3002070BD10B5034800F008F863
:1002C0000249088010BD00000028014030000020D5
:1002D0000146C86C80B2704700BFFEE730B51448D5
:1002E000406818B3002012494860002500240EE041
:1002F000104850F8340080680E4901EBC401898829
:10030000084010B90C48005D0543601CC4B2012CC4
:10031000EEDB1DB1284600F077F907E00748407B87
:1003200020B100200549887200F0E8F930BD0000D6
:100330005C010020440000209C1F0008E801002010
:100340002DE9F0410746884615460421052000F0B6
:100350002DF80021012001F099FA80210A2001F0F6
:100360000DF8002405E0395D092001F08FFA601CCA
:10037000C4B24445F7DB0321012001F087FAFF24D2
:1003800000BF052000F046FD0646601EC4B21CB149
:1003900006F004000028F4D0222000F03BFD287075
:1003A000212000F037FD6870BDE8F08170B505468A
:1003B0000C460026284600F02DFD064626EA0401DC
:1003C000284601F063FA70BD2DE9F041ADF57A7D64
:1003D000002500260027A8464FF47A716846FFF7EB
:1003E000BAFE2448006800283FDD224801686846BC
:1003F00000F0ECFE002838D000201E490860694655
:100400001DA001F0A1FA6E46002429E004EBC4000F
:100410001A4A02EB80013046FFF7A8FE0546EDB10F
:1004200004EBC400154901EB8000006AB0B104EB95
:10043000C401124A02EB8100FFF7AAFE87B2E81955
:1004400004EBC4020D4B03EB8202116A8847032CB4
:1004500003D105F12D06601E84B20025601C84B214
:10046000022CD3D306A001F06FFA0DF57A7DBDE81A
:10047000F081000090000020257300000C01002096
:1004800020202074696E670D0A00000010B500225C
:10049000026847F6F0739A430C6A8B6823430C6931
:1004A00023434C6923438C692343CC6923434C6A1F
:1004B00023438C6A23431A430260CB6843600B6872
:1004C00083604B68C36010BD70472DE9F041024660
:1004D00000250026002000230024002791F803C0F7
:1004E0000CF00F0591F803C00CF0100CBCF1000FDC
:1004F00003D091F802C04CEA050591F800C0BCF1A8
:10050000000F31D0146800202BE04FF0010C0CFAE2
:1005100000F3B1F800C00CEA03069E4220D183002C
:100520004FF00F0C0CFA03F7BC4305FA03FC4CEA3E
:10053000040491F803C0BCF1280F06D14FF0010C60
:100540000CFA00FCC2F814C00AE091F803C0BCF138
:10055000480F05D14FF0010C0CFA00FCC2F810C096
:10056000401C0828D1D31460B1F800C0BCF1FF0FC3
:1005700034DD546800202EE000F1080C4FF0010833
:1005800008FA0CF3B1F800C00CEA03069E4221D130
:1005900083004FF00F0C0CFA03F7BC4305FA03FC81
:1005A0004CEA040491F803C0BCF1280F05D100F116
:1005B000080C08FA0CF8C2F8148091F803C0BCF1DA
:1005C000480F07D100F1080C4FF0010808FA0CF8A9
:1005D000C2F81080401C0828CED35460BDE8F081DA
:1005E00000BFFEE710B500F065FC00F033FC00F042
:1005F0009BFA00F07DF9022001F010FC00F07EF97A
:10060000412000F001F910BD0FB501460022029211
:1006100003920092019200296BD0002025E0354A18
:1006200012F830200A404AB1324A02EBC002526846
:10063000521C304B03EBC0035A6004E000222D4BE8
:1006400003EBC0035A602B4B03EBC003039A5B68B8
:100650009A4209D2274A02EBC00252680392254A05
:1006600012F830208DF80820401C0628D7D300202F
:100670001FE0204A02EBC0025268039B9A4217D83F
:100680001C4B03EBC003019A5B689A4210D29DF8A1
:100690000820184B13F830309A4209D0154A02EB63
:1006A000C00252680192134A12F830208DF80020DF
:1006B000401C0628DDD3019AC82A0DD901220E4B11
:1006C0009A72DA729DF808209DF800301A430A4B9E
:1006D0005A73019A1A610CE09DF80820022A08DD7D
:1006E0000122054B9A72DA729DF808205A73039A18
:1006F0001A610FBD4C020020E8010020002006E036
:100700000021044A02EBC0025160411CC8B2062815
:10071000F6DB70474C02002000B51148407828B93C
:1007200001200F4948700F49086018E00E48C07A50
:10073000A8B10D48407B042811D10B48807A0128CC
:1007400008D109480069B0F5FA6F08D900200649B8
:10075000C87204E000200449C87200F033F800BDFC
:1007600032000020A4812142E801002000B5124897
:10077000407830B901201049487000200F490860C6
:1007800019E00F48C07AB0B10D48407B042812D15F
:100790000B48807A01280BD109480069B0F5FA6F3F
:1007A00009D900200649C872022000F00BF802E0C7
:1007B00000200349C87200BD32000020A4812142FC
:1007C000E8010020024908700021014A5170704779
:1007D0003200002000B50A4803780A48806868B1F2
:1007E00000200849886013B1022B06D102E0FFF710
:1007F000BDFF02E0FFF790FF00BF00BF00BD00009B
:10080000320000205C01002010B50446412C26D1A6
:1008100008210846FFF7CAFD3D21112001F036F8F6
:100820008621172001F032F87F21262001F02EF8D2
:100830001E212D2001F02AF800212C2001F026F89D
:100840008D212A2001F022F83E212B2001F01EF8F4
:100850004FF47A7001F0ECFA00F050F801E001205A
:1008600010BD0020FCE700BFFEE7704770B5002117
:1008700000230F22C47804B3154C246804F4E06408
:10088000C4F5E064210AC1F10403CA40447804FAC3
:1008900003F184781440214309010E4C0678A155D8
:1008A000047804F01F050124AC4005786D11AD00FB
:1008B00005F1E025C5F8004109E0047804F01F05C2
:1008C0000124AC40044D0678761145F8264070BDF1
:1008D0000CED00E000E400E080E100E002490143AB
:1008E000024A1160704700000000FA050CED00E0BC
:1008F00000B503211420FFF759FD00BD10B51420E9
:1009000000F088FA044604F0030018B9032114200B
:1009100000F034FD10BDF0B587B005460027082172
:100920000846FFF743FD00210D2000F0AFFF8021B6
:100930000E20FFF73BFD93208DF8040020208DF85A
:10094000050006A801AB022201A900900C2000F0CE
:100950001AF8064686B9002407E001A8005D28556C
:1009600001A8005D4740601CC4B2042CF5DB01A85F
:10097000005DB84200D0022680210E2000F0FEFC6F
:10098000304607B0F0BD2DE9FE4F06468846914639
:100990009A46DDF830B002200290002001900090CD
:1009A0000C2E06D00E2E09D112200190102000909E
:1009B00005E0772001903020009000E000BF00BFEC
:1009C000019840F08001022000F060FF80210420A7
:1009D000FFF7ECFC0021012000F058FF80210A20E5
:1009E00000F0CCFC002406E018F80410092000F008
:1009F0004DFF601C84B24C45F6DB3146012000F00F
:100A000045FF0C2E03D180210D2000F0B7FC4FF4E0
:100A1000FA6400BF042000F0FDF90546042001F04F
:100A2000FDF9601E84B234B105F0010018B90098D8
:100A300028400028EED080210D20FFF7B7FC002CC5
:100A400038D0062000F0E6F900F01B0078BB00204B
:100A500002900198284000F0010008B101200290A6
:100A60000C2E27D10A2000F0D5F905460C2000F005
:100A7000D1F900F007072FB1681E07EBC0008BF813
:100A8000000003E0E806000E8BF8000005B9012520
:100A9000122D00DD1225002406E0092000F0BAF92D
:100AA0000AF80400601C84B2AC42F6DB02E0FFE707
:100AB0000220029080210C2000F060FC0021012027
:100AC00000F0E4FE0298BDE8FE8F70B588B00546E0
:100AD0000C4608210846FFF769FC07210D2000F0AD
:100AE000D5FE0321142000F049FC8DF8085007A81A
:100AF00002AB012202A900900C20FFF744FF06463A
:100B0000022001F08BF956B99DF81C00102806D17F
:100B10009DF8080020709DF80900607000E0022632
:100B2000304608B070BD000000B501201B490860C8
:100B30000A2001F07DF900201949C1F8B0010A200E
:100B400001F076F90120154908600A2001F070F9DA
:100B50000F21012000F09AFE0F21012000F096FEE7
:100B60000A2001F065F93D21112000F08FFE1E21C1
:100B70002D2000F08BFE00212C2000F087FE8D211F
:100B80002A2000F083FE3E212B2000F07FFE402132
:100B9000152000F07BFE002000BD0000B081214246
:100BA0000080214270B588B0054693208DF808007A
:100BB00070208DF8090000208DF80E0000240BE055
:100BC000295D02AAA01C11549DF80E00295D484021
:100BD0008DF80E00601CC4B2042CF1DB0DF10F0285
:100BE000072102A8FFF7ACFB08210846FFF7DEFB50
:100BF00007A802AB092202A900900C20FFF7C3FE50
:100C000006462EB99DF81C00182801D1002600E0E8
:100C10000226304608B070BD7047000008B51C4978
:100C20005220FFF752FF1B4908700846007830B980
:100C3000022008701848FFF76EFE16490870154824
:100C4000007820BB0220134908701448007814492A
:100C50000978084413490978084413490978084475
:100C6000124909780844124908700B48FFF79AFFA7
:100C7000084908700848C07800900748837842788F
:100C800001780CA000F060FE034800F045FB08BDB1
:100C90005100002087000020530000205800002051
:100CA000590000205A0000205B000020570000205F
:100CB0005C00002025782025782025782025780DD7
:100CC0000A00000029B1064A52690243044B5A61E6
:100CD00004E0034A52698243014B5A6170470000A5
:100CE0000010024029B1064AD2690243044BDA617E
:100CF00004E0034AD2698243014BDA617047000085
:100D00000010024029B1064A92690243044B9A61DD
:100D100004E0034A92698243014B9A6170470000E4
:100D20000010024030B500210022002400232D4D88
:100D30006D6805F00C0121B1042905D0082923D1E3
:100D400005E0294D056022E0274D05601FE0254D97
:100D50006D6805F47012234D6D6805F4803402252A
:100D600005EB92421CB9214D554305600BE01D4D2A
:100D70006D6805F400351DB11C4D5543056002E05A
:100D8000194D5543056002E0174D056000BF00BFD7
:100D9000144D6D6805F0F0010909154D6B5C05688F
:100DA000DD4045600F4D6D6805F4E061090A104DA6
:100DB0006B5C4568DD4085600A4D6D6805F46051E7
:100DC000C90A0B4D6B5C4568DD40C560054D6D681B
:100DD00005F44041890B074D6B5CC568B5FBF3F525
:100DE000056130BD0010024000127A0000093D008C
:100DF000140000202400002010B50548C068B0F59C
:100E00007A7F04D900200249C860FFF707FF10BDB0
:100E10005C01002070B50446002500200A490860E6
:100E20007E2000EA440040F08006304600F076F86C
:100E3000002000F073F805460448057001200449BD
:100E4000C1F8A001284670BDA00121425000002039
:100E50000000214210B5FFF767FEFFF749FD0220B1
:100E600000F0DCFFFFF74AFD10BD000000211AE092
:100E700000220E4B1A6000F080021AB101221B1FE3
:100E80001A6003E00022094B1B1F1A604206100E75
:100E90000122064B1A60064AD2F834210AB140F00A
:100EA00001004A1CD1B20829E2DB7047BC81214213
:100EB0000080214208B501210C20FFF723FF4FF4E9
:100EC0005040ADF8000010208DF8030003208DF88D
:100ED000020069460F48FFF7F8FA4FF48070ADF84A
:100EE000000010208DF8030003208DF802006946F1
:100EF0000948FFF7EAFA4FF40050ADF80000482027
:100F00008DF8030003208DF8020069460148FFF7C1
:100F1000DCFA08BD000C01400008014010B5044691
:100F20002046FFF7A3FF10BD10B50446642000F073
:100F300075FF2721014800F055F910BDD3000020AE
:100F400070B586B004460D46164625208DF8000083
:100F500003208DF8020001208DF803006846FFF79A
:100F600085FC01210420FFF7CDFE01218803FFF756
:100F7000C9FE4FF40070ADF8040003208DF80600A0
:100F800018208DF8070001A93148FFF79EFA4FF4A9
:100F90008060ADF8040004208DF8070001A92C48FA
:100FA000FFF793FA02940020ADF80C00ADF80E5054
:100FB000ADF810600C20ADF812000020ADF8140060
:100FC00002A9244800F0F4FB0121224800F095FB1F
:100FD000012240F225511F4800F0C5FB012240F2DA
:100FE00025511C4800F0BFFB00F044F94FF0011000
:100FF0001949086000204860184888604FF47A72E8
:10100000174915480C3000F063FC01210846FFF732
:1010100079FE01210820FFF775FE4020ADF804009D
:1010200003208DF8060018208DF8070001A90D484F
:10103000FFF74BFA8020ADF8040004208DF807007C
:1010400001A90848FFF741FA002006B070BD000072
:101050000008014000380140F00A0020F60E002090
:101060000C0B0020000C014070B505460C4614B175
:10107000B4F57A7F01D9002070BD1848006800F4EB
:10108000005028B916484068012801D10020F3E734
:101090001348406810B90120114948600F48406862
:1010A00040F400500D49486022460E49284600F0A1
:1010B00005FC0A48406C20F00100084948640948D2
:1010C0000865084684648020074908800348406C0E
:1010D00040F00100014948642046CDE7000002408D
:1010E000F00A0020F60E00201438014070B586B0DA
:1010F00004460D4616464FF4E060FFF7EFFB26204E
:101100008DF8000000208DF8020001208DF803000A
:101110006846FFF7ABFB01210420FFF7F3FD012137
:101120004804FFF7DFFD0420ADF8040003208DF82C
:10113000060018208DF8070001A91E48FFF7C5F921
:101140000820ADF8040004208DF8070001A9194813
:10115000FFF7BBF902940020ADF80C00ADF80E507B
:10116000ADF810600C20ADF812000020ADF81400AE
:1011700002A9114800F01CFB01210F4800F0BDFA44
:10118000012240F225510C4800F0EDFA00F09AF8E7
:101190000A480B490860002048600A4888604FF4FC
:1011A0007A72094906480C3000F092FB002006B024
:1011B00070BD000000080140004400400200010032
:1011C000840600208A0A0020A006002070B504468C
:1011D0000D462A462146024800F09DFB70BD0000E6
:1011E0009006002070B505460C460CB1642C01D960
:1011F000002070BD1B48006800F0007028B91A4834
:101200004068012801D10020F3E71748406810B971
:101210000120154948601348406840F000701149AA
:10122000486022461149284600F048FB0D488030AE
:10123000006820F001000B49C1F880000B48C1F89C
:101240008C000848843004608020094908800548E3
:10125000D0F8800040F001000249C1F8800020462B
:10126000C7E7000000000240840600208A0A002030
:101270001444004000B58BB001210846FFF722FD61
:101280000D4800900D480190102002900A20039014
:101290000020049080200590002006900790089080
:1012A0004FF40050099000200A9069460448FFF767
:1012B000EDF800200BB000BD04380140F60E002010
:1012C0004400024000B58BB001210846FFF7FAFC4C
:1012D0000D4800900D480190102002900A200390C4
:1012E0000020049080200590002006900790089030
:1012F0004FF40050099000200A9069460448FFF717
:10130000C5F800200BB000BD044400408A0A00204C
:10131000800002407047000030B587B00446FEF7F9
:1013200001FFC82190FBF1F201FB1200643085B28D
:1013300010210B48FFF756FF284600F06FFDE078BC
:10134000A178CDE900106378227806A103A800F007
:101350000BFB0E2103A8FFF745FF07B030BD0000CF
:10136000FA00002052464944253032782530327840
:1013700025303278253032780000000070B50546FF
:101380000C4600262846FFF745FD064646EA0401BE
:10139000284600F07BFA70BD10B500F001F810BDD2
:1013A0000CB50020019000903348006840F4803074
:1013B0003149086000BF3048006800F400300090F8
:1013C0000198401C0190009818B90198B0F5A06FE1
:1013D000F1D12948006800F4003010B101200090DC
:1013E00001E0002000900098012843D123480068C4
:1013F00040F01000214908600846006820F0030012
:1014000008600846006840F0020008601A4840681A
:10141000194948600846406848600846406840F4FA
:10142000806048600846406820F47C1048600846A8
:10143000406840F4E81048600846006840F080705A
:10144000086000BF0C48006800F000700028F9D068
:101450000948406820F00300074948600846406892
:1014600040F00200486000BF0348406800F00C00F4
:101470000828F9D10CBD00000010024000200240F5
:1014800008490968491C074A1160002007E006491D
:1014900051F82010491C044A42F82010401C0A2828
:1014A000F5D370472C0000205C01002010B51348D4
:1014B000006840F001001149086008464068104982
:1014C00008400E494860084600680E4908400B492C
:1014D00008600846006820F48020086008464068DC
:1014E00020F4FE0048604FF41F008860FFF754FFAF
:1014F0004FF000600449086010BD00000010024079
:101500000000FFF8FFFFF6FE08ED00E070B5FEF703
:1015100009FEC82190FBF1F201FB120000F57A7080
:1015200084B2204600F07AFC01210520FFF7EAFB97
:1015300001210820FFF7E6FB0121C802FFF7E2FBCB
:1015400001218804FFF7CEFB002211464FF416500C
:10155000FFF7F6FCFFF746F800F0C2FC15A000F01C
:10156000F3F9184800684FF47A72B0FBF2F1B1F168
:10157000807F00D31DE021F07F40401E4FF0E0222D
:10158000506150170F22002807DA13071E0E0E4B6A
:1015900000F00F052D1F5E5503E013071D0E0B4BCA
:1015A0001D5400BF00204FF0E02290610720106121
:1015B00000BF70BD48656C6C6F20776F726C640DF6
:1015C0000A0000000000002018ED00E000E400E048
:1015D00008B540F225510A4800F09BF870B140F27E
:1015E0002551074800F07AF80548001D0088C0B270
:1015F000009001226946034800F075F908BD00001B
:1016000000380140FC0A002008B540F22551154879
:1016100000F07FF8F8B140F22551124800F05EF872
:101620001048001D0088C0B200900F480068401CA0
:101630000D490860012269460C4800F054F9002069
:101640000B49486108480068B0F57A7F08DB002044
:101650000549086004E040F22441024800F059F8CE
:1016600008BD0000004400409000002090060020CB
:101670005C01002008B540F22551154800F049F8FA
:1016800090B140F22551124800F028F81048001D92
:101690000088C0B20090012269460E4800F023F98C
:1016A00001200D49087011E040F22441084800F083
:1016B00030F858B106480088C0B200900448001DB8
:1016C0000088C0B2009000200349087008BD0000E7
:1016D00000480040880200208900002010B5002248
:1016E000002340F66A14A14200D100BF0A1201246F
:1016F0009440A3B2DC43048010BD21B1828942F43E
:101700000052828104E082894DF6FF731A40828183
:10171000704770B50246002400230025002040F6E3
:101720006A16B14200D100BFC1F3421501F01F0398
:10173000012606FA03F3012D02D19689334006E013
:10174000022D02D1168A334001E0968A33400C12F2
:10175000012606FA04F41688344013B10CB10120B6
:1017600000E0002070BDF0B50346002400260025EF
:10177000002040F66A17B94200D100BF1846C1F3F5
:10178000421401F01F06012707FA06F5012C01D1CA
:101790000C3004E0022C01D1103000E014301AB1FA
:1017A00007682F43076002E00768AF430760F0BD9A
:1017B0002DE9F04786B005460E460024A24600BF3C
:1017C000A1460027B08900B100BF2F462C8A4CF6F5
:1017D000FF700440F08804432C82AC894EF6F3106D
:1017E0000440B08831890843718908430443AC81BF
:1017F000AC8A4FF6FF400440B0890443AC8201A894
:10180000FFF790FA1F48874202D1DDF810A001E0EF
:10181000DDF80CA0A88900F4004040B10AEBCA0032
:1018200000EB0A1031684900B0FBF1F807E00AEB61
:10183000CA0000EB0A1031688900B0FBF1F864209F
:10184000B8FBF0F004012009642101FB1089A8898C
:1018500000F4004040B1322000EBC900B0FBF1F0D1
:1018600000F00700044308E0322000EB0910642177
:10187000B0FBF1F000F00F0004432C8106B0BDE88E
:10188000F08700000038014000BFFEE770B5044655
:101890000D460020074908607E2000EA44063046D5
:1018A000FFF73CFB2846FFF739FB01200249C1F84E
:1018B000A00170BDA00121420000214210B50346E5
:1018C000002002E01C5C0C54401C9042FAD310BD76
:1018D000034631B1002018605860D9609A60012039
:1018E00070470020FCE770B503460C4600200EE070
:1018F0001D68691C9D688D4200D800215D688D427D
:1019000000D106E0255CDE6875541960401C9042E9
:10191000EED300BF70BD30B503460C4600200EE08C
:1019200059681D688D4200D10BE0491C9D688D42AD
:1019300000D80021DD686D5C25545960401C904240
:10194000EED300BF30BD00000FB4054B10B503A9A6
:10195000044A029800F02CF810BC5DF814FB00005B
:10196000551F0008580100200FB4084B10B504A9FA
:1019700002AA039800F01CF8044602A9002000F017
:1019800048FA204610BC5DF814FB0000131E000846
:1019900002E008C8121F08C1002AFAD17047704738
:1019A000002001E001C1121F002AFBD17047000096
:1019B0002DE9FF4F8DB00F460546002606E025288D
:1019C0000BD0DDE90F1290476D1C761C287800289B
:1019D000F5D111B03046BDE8F08F0024A246A146F3
:1019E0000122EC4900E0044315F8013F203B02FAD4
:1019F00003F00842F7D128782A2810D06FF02F0280
:101A00002878A0F13001092914D80AEB8A0102EBE9
:101A1000410144F0020400EB010A6D1CF0E701CF24
:101A20005FEA000A03D544F40054CAF1000A44F006
:101A300002046D1C28782E2817D115F8010F44F0E8
:101A400004042A280ED06FF02F022878A0F130016C
:101A500009290AD809EB890102EB410100EB0109D0
:101A60006D1CF2E757F8049B6D1C28786C280FD08A
:101A700006DC4C2817D068280DD06A2814D104E061
:101A8000742810D07A280FD10DE044F400140AE035
:101A900044F4801401E044F440146978814202D196
:101AA00004F580146D1C6D1C2A786E2A1FD00CDC86
:101AB000632A31D004DC002A8BD0582A11D1A3E04C
:101AC000642A68D0692A0CD165E0732A2ED004DC20
:101AD0006F2A73D0702A04D19BE0752A6FD0782AC0
:101AE0006ED01046DDE90F129047761C50E1C4F32A
:101AF0000250022806D0032809D0042801CF09D0BB
:101B0000066045E101CFF117C0E9006140E101CF76
:101B100006803DE106703BE117F8040B8DF80000EC
:101B200000208DF80100EB46012003E057F804BBCC
:101B30004FF0FF3061074FF0000102D40DE008F1D3
:101B40000101884649450FDA8045F8DB1BF808108B
:101B50000029F4D108E008F1010188468142FADB4E
:101B60001BF808100029F6D1DDE90F23AAEB0800C5
:101B70008146214600F036F9304400EB080604E0C7
:101B8000DDE90F121BF8010B9047B8F10108F7D2FD
:101B900021464846F7E00A21C4F302534FF0000BF8
:101BA0000891022B04D001CFC117032B09D00AE002
:101BB000FF1D27F00707F7E8020108E032E01FE009
:101BC00020E000B2C117042B01D140B2C117031E9F
:101BD00071F1000307DA4FF0000CD0EB0C006CEB56
:101BE00001012D2302E0230504D52B238DF8243099
:101BF000012303E0E30701D02023F7E7984658E0EC
:101C00000A2110E010210EE010204FF0000B089088
:101C10000CE010214FF0000B44F004044FF00809D1
:101C2000089103E008214FF0000B0891C4F3025320
:101C3000022B04D001CF0021032B06D006E0FF1DAC
:101C400027F00707F7E8020103E080B2042B00D178
:101C5000C0B24FF0000823072BD5702A07D0DDF85B
:101C600020C08CF0100C5CEA0B0C05D00EE0402379
:101C70008DF82430012308E050EA010306D0302318
:101C80008DF824308DF8252002239846DDF820C0F9
:101C90008CF0080C5CEA0B0C0BD150EA010301D16B
:101CA000630706D530238DF824304FF00108A9F1E1
:101CB0000109582A04D038A20B9208AA0A920BE014
:101CC0003AA2F9E75B46089AFEF769FA0B9B9B5C20
:101CD0000A9A521E0A92137050EA0102F2D10A982F
:101CE000ADEB000000F1200B600702D524F4803436
:101CF00001E04FF00109D94502DDA9EB0B0000E03E
:101D0000002000EB0B0141440890AAEB010AE0031C
:101D100006D4DDE90F232146504600F063F806445F
:101D20004FF0000908E009A911F80900DDE90F12D8
:101D3000904709F10109761CC145F4DBE0030CD59D
:101D4000DDE90F232146504600F04CF8064404E03C
:101D5000DDE90F1230209047761C0899481E089044
:101D60000029F5DC08E00A980A990078491C0A91D4
:101D7000DDE90F129047761CBBF10001ABF1010BBE
:101D8000F1DC21465046DDE90F2300F019F8064446
:101D90006D1C1BE6092801003031323334353637EB
:101DA00038396162636465660000000030313233A7
:101DB0003435363738394142434445460000000047
:101DC0002DE9F041044600251E461746880404D438
:101DD00005E039462020B0476D1C641EF9D5284621
:101DE000BDE8F0812DE9F041044600251E469046ED
:101DF000C80301D5302700E02027880404D505E07A
:101E000041463846B0476D1C641EF9D52846BDE8EA
:101E1000F0810A68531C0B601070704710B50346C0
:101E20004FF47A7003FB00F4204600F00AF810BD6E
:101E3000002103E000BF00BF00BF491C8142F9D36D
:101E40007047002148E000BF00BF00BF00BF00BFD7
:101E500000BF00BF00BF00BF00BF00BF00BF00BF8A
:101E600000BF00BF00BF00BF00BF00BF00BF00BF7A
:101E700000BF00BF00BF00BF00BF00BF00BF00BF6A
:101E800000BF00BF00BF00BF00BF00BF00BF00BF5A
:101E900000BF00BF00BF00BF00BF00BF00BF00BF4A
:101EA00000BF00BF00BF00BF00BF00BF00BF00BF3A
:101EB00000BF00BF00BF00BF00BF00BF00BF00BF2A
:101EC00000BF00BF00BF00BF00BF00BF00BF00BF1A
:101ED00000BF00BF00BF491C8142B4D3704700005F
:101EE00010B5FEF71FF94FF4FA7190FBF1F201FB08
:101EF000120000F164042046FFF790FF0022114613
:101F00004FF4E130FFF7F2F809210E48FFF76AF9C4
:101F10006420FFF783FF0E210B48FFF763F964206D
:101F2000FFF77CFF22210948FFF75CF96420FFF7E7
:101F300075FF27210648FFF755F96420FFF76EFF6C
:101F400010BD00009A000020A3000020B100002076
:101F5000D300002013B50C460120FFF75FFF0121DD
:101F60006846FFF781F800981CBD000000BFFFF72E
:101F7000CDFA0FE0FEF740FF07484069B0F5967FC5
:101F800004D9002004494861FEF71EFAFEF7A6F9BD
:101F9000FEF720FCEEE700005C010020041040206A
:101FA00000000000C41F0008000000205C010000C9
:101FB00062020008802000085C01002084310000DB
:101FC000A01900081184A24A04680901020304064A
:101FD0000708090C6910051D0204060814100140C9
:101FE0000213403816C43A68D9536A0B01D0791FDE
:101FF00039B0B18FA5059E0A88FF01615DFF07809A
:102000002910091061280941542B5253540D0A0913
:10201000680943574D4F44453D310E581B4A4150C6
:102020005F4445463D22657372222C22313233349F
:102030003536373839302222280D49505354415211
:10204000543D2254435021881139322E3136382ED6
:10205000342E31222C38303838271F454E443D313C
:10206000321021071A434C4F53454413290F080DD2
:1020700017085749464920474F54204950248100AA
:04000005080000ED02
:00000001FF
